{
  "_format": "hh-sol-artifact-1",
  "contractName": "MessagePortal",
  "sourceName": "contracts/MessagePortal.sol",
  "abi": [
    {
      "inputs": [],
      "stateMutability": "nonpayable",
      "type": "constructor"
    },
    {
      "anonymous": false,
      "inputs": [
        {
          "indexed": true,
          "internalType": "address",
          "name": "sender",
          "type": "address"
        },
        {
          "indexed": false,
          "internalType": "string",
          "name": "message",
          "type": "string"
        },
        {
          "indexed": false,
          "internalType": "uint256",
          "name": "timestamp",
          "type": "uint256"
        }
      ],
      "name": "NewMsg",
      "type": "event"
    },
    {
      "inputs": [],
      "name": "getAllMessages",
      "outputs": [
        {
          "components": [
            {
              "internalType": "address",
              "name": "sender",
              "type": "address"
            },
            {
              "internalType": "string",
              "name": "message",
              "type": "string"
            },
            {
              "internalType": "uint256",
              "name": "timestamp",
              "type": "uint256"
            }
          ],
          "internalType": "struct MessagePortal.Message[]",
          "name": "",
          "type": "tuple[]"
        }
      ],
      "stateMutability": "view",
      "type": "function"
    },
    {
      "inputs": [],
      "name": "getTotalMessages",
      "outputs": [
        {
          "internalType": "uint256",
          "name": "",
          "type": "uint256"
        }
      ],
      "stateMutability": "view",
      "type": "function"
    },
    {
      "inputs": [
        {
          "internalType": "string",
          "name": "_message",
          "type": "string"
        }
      ],
      "name": "sendMsg",
      "outputs": [],
      "stateMutability": "nonpayable",
      "type": "function"
    }
  ],
  "bytecode": "0x60806040523480156200001157600080fd5b506200004160405180606001604052806025815260200162000d04602591396200004760201b620003701760201c565b620001db565b620000e7816040516024016200005e919062000154565b6040516020818303038152906040527f41304fac000000000000000000000000000000000000000000000000000000007bffffffffffffffffffffffffffffffffffffffffffffffffffffffff19166020820180517bffffffffffffffffffffffffffffffffffffffffffffffffffffffff8381831617835250505050620000ea60201b60201c565b50565b60008151905060006a636f6e736f6c652e6c6f679050602083016000808483855afa5050505050565b6000620001208262000178565b6200012c818562000183565b93506200013e81856020860162000194565b6200014981620001ca565b840191505092915050565b6000602082019050818103600083015262000170818462000113565b905092915050565b600081519050919050565b600082825260208201905092915050565b60005b83811015620001b457808201518184015260208101905062000197565b83811115620001c4576000848401525b50505050565b6000601f19601f8301169050919050565b610b1980620001eb6000396000f3fe608060405234801561001057600080fd5b50600436106100415760003560e01c8063147e91081461004657806353f5e380146100645780639e02482014610082575b600080fd5b61004e61009e565b60405161005b919061085d565b60405180910390f35b61006c6100a7565b60405161007991906107a4565b60405180910390f35b61009c600480360381019061009791906105dc565b6101f8565b005b60008054905090565b60606001805480602002602001604051908101604052809291908181526020016000905b828210156101ef57838290600052602060002090600302016040518060600160405290816000820160009054906101000a900473ffffffffffffffffffffffffffffffffffffffff1673ffffffffffffffffffffffffffffffffffffffff1673ffffffffffffffffffffffffffffffffffffffff16815260200160018201805461015490610a13565b80601f016020809104026020016040519081016040528092919081815260200182805461018090610a13565b80156101cd5780601f106101a2576101008083540402835291602001916101cd565b820191906000526020600020905b8154815290600101906020018083116101b057829003601f168201915b50505050508152602001600282015481525050815260200190600101906100cb565b50505050905090565b600160008082825461020a919061093f565b925050819055506102516040518060400160405280601281526020017f25732073656e74206d65737361676520257300000000000000000000000000008152503383610409565b600160405180606001604052803373ffffffffffffffffffffffffffffffffffffffff16815260200183815260200142815250908060018154018082558091505060019003906000526020600020906003020160009091909190915060008201518160000160006101000a81548173ffffffffffffffffffffffffffffffffffffffff021916908373ffffffffffffffffffffffffffffffffffffffff16021790555060208201518160010190805190602001906103109291906104d1565b506040820151816002015550503373ffffffffffffffffffffffffffffffffffffffff167f7bb701d00ec97ed0244cbd408f1ef47d07bbe756906ca6132a59879dce3c2df9824260405161036592919061082d565b60405180910390a250565b6104068160405160240161038491906107c6565b6040516020818303038152906040527f41304fac000000000000000000000000000000000000000000000000000000007bffffffffffffffffffffffffffffffffffffffffffffffffffffffff19166020820180517bffffffffffffffffffffffffffffffffffffffffffffffffffffffff83818316178352505050506104a8565b50565b6104a3838383604051602401610421939291906107e8565b6040516020818303038152906040527fe0e9ad4f000000000000000000000000000000000000000000000000000000007bffffffffffffffffffffffffffffffffffffffffffffffffffffffff19166020820180517bffffffffffffffffffffffffffffffffffffffffffffffffffffffff83818316178352505050506104a8565b505050565b60008151905060006a636f6e736f6c652e6c6f679050602083016000808483855afa5050505050565b8280546104dd90610a13565b90600052602060002090601f0160209004810192826104ff5760008555610546565b82601f1061051857805160ff1916838001178555610546565b82800160010185558215610546579182015b8281111561054557825182559160200191906001019061052a565b5b5090506105539190610557565b5090565b5b80821115610570576000816000905550600101610558565b5090565b6000610587610582846108a9565b610878565b90508281526020810184848401111561059f57600080fd5b6105aa8482856109d1565b509392505050565b600082601f8301126105c357600080fd5b81356105d3848260208601610574565b91505092915050565b6000602082840312156105ee57600080fd5b600082013567ffffffffffffffff81111561060857600080fd5b610614848285016105b2565b91505092915050565b60006106298383610736565b905092915050565b61063a81610995565b82525050565b61064981610995565b82525050565b600061065a826108e9565b610664818561090c565b935083602082028501610676856108d9565b8060005b858110156106b25784840389528151610693858261061d565b945061069e836108ff565b925060208a0199505060018101905061067a565b50829750879550505050505092915050565b60006106cf826108f4565b6106d9818561091d565b93506106e98185602086016109e0565b6106f281610ad2565b840191505092915050565b6000610708826108f4565b610712818561092e565b93506107228185602086016109e0565b61072b81610ad2565b840191505092915050565b600060608301600083015161074e6000860182610631565b506020830151848203602086015261076682826106c4565b915050604083015161077b6040860182610786565b508091505092915050565b61078f816109c7565b82525050565b61079e816109c7565b82525050565b600060208201905081810360008301526107be818461064f565b905092915050565b600060208201905081810360008301526107e081846106fd565b905092915050565b6000606082019050818103600083015261080281866106fd565b90506108116020830185610640565b818103604083015261082381846106fd565b9050949350505050565b6000604082019050818103600083015261084781856106fd565b90506108566020830184610795565b9392505050565b60006020820190506108726000830184610795565b92915050565b6000604051905081810181811067ffffffffffffffff8211171561089f5761089e610aa3565b5b8060405250919050565b600067ffffffffffffffff8211156108c4576108c3610aa3565b5b601f19601f8301169050602081019050919050565b6000819050602082019050919050565b600081519050919050565b600081519050919050565b6000602082019050919050565b600082825260208201905092915050565b600082825260208201905092915050565b600082825260208201905092915050565b600061094a826109c7565b9150610955836109c7565b9250827fffffffffffffffffffffffffffffffffffffffffffffffffffffffffffffffff0382111561098a57610989610a45565b5b828201905092915050565b60006109a0826109a7565b9050919050565b600073ffffffffffffffffffffffffffffffffffffffff82169050919050565b6000819050919050565b82818337600083830152505050565b60005b838110156109fe5780820151818401526020810190506109e3565b83811115610a0d576000848401525b50505050565b60006002820490506001821680610a2b57607f821691505b60208210811415610a3f57610a3e610a74565b5b50919050565b7f4e487b7100000000000000000000000000000000000000000000000000000000600052601160045260246000fd5b7f4e487b7100000000000000000000000000000000000000000000000000000000600052602260045260246000fd5b7f4e487b7100000000000000000000000000000000000000000000000000000000600052604160045260246000fd5b6000601f19601f830116905091905056fea26469706673582212209670fab9ffc6c061ea54694dd020f133de95ce80d7bcceda14a6e07d54c95eb864736f6c634300080000334920414d20534d41525420434f4e5452414354204f4e2054484520424c4f434b434841494e",
  "linkReferences": {},
  "deployedLinkReferences": {}
}